S00D000054657374332E7372656344
S113000045C0000053C0000051C000004FC00000B4
S11300104DC000004BC0000049C0000047C00000B4
S113002045C0000043C0000041C000003FC00000C4
S11300303DC000003BC0000039C0000037C00000D4
S113004035C0000033C0000031C000002FC00000E4
S11300502DC000002BC0000029C0000027C00000F4
S113006025C0000023C0000021C000001FC0000004
S11300701DC000001BC000005CC0000017C00000D1
S113008015C0000013C0000011C0000011241FBEE1
S1130090CFEFD0E1DEBFCDBF21E0A0E0B1E001C0F1
S11300A01D92A630B207E1F7B3D0C0C0A9CF109219
S11300B0980083E38093990088E980939A0086E00E
S11300C080939D00089590919B0095FFFCCF8093B1
S11300D09C000895FC018181813311F412BA0895C2
S11300E0803311F48FEF82BB0895FC01218130E04D
S11300F020533109828190E0C0978130910559F4F1
S113010033B181E090E002C0880F991F2A95E2F78D
S1130110832B83B90895892B59F433B181E090E09E
S113012002C0880F991F2A95E2F78095832383B92B
S113013008951F920F920FB60F9211240BB60F92CF
S11301402F933F934F935F936F937F938F939F93DB
S1130150AF93BF93EF93FF9380919B0088230CF0A0
S113016044C080919C008093000180910001ABDF2A
S1130170809100018A30C9F18091040190910501B8
S113018020910001FC01EF5FFE4F20838130910537
S113019061F420910101223441F481E091E09ADF7D
S11301A0109205011092040120C08230910561F47F
S11301B0209101012C3441F481E091E096DF10920A
S11301C005011092040111C08230910549F4209177
S11301D001012C3429F0109205011092040105C08C
S11301E001969093050180930401FF91EF91BF91D3
S11301F0AF919F918F917F916F915F914F913F91BB
S11302002F910F900BBE0F900FBE0F901F9018955B
S11302108FEF82B913B881BB82BB49DF789483E541
S113022052DF1092050110920401FFCFF894FFCF22
S9030000FC
