S00D000054657374322E7372656345
S113000045C000004BC0000049C0000047C00000CC
S113001045C0000043C0000041C000003FC00000D4
S11300203DC000003BC0000039C0000037C00000E4
S113003035C0000033C0000031C000002FC00000F4
S11300402DC000002BC0000029C0000027C0000004
S113005025C0000023C0000021C000001FC0000014
S11300601DC000001BC0000019C0000017C0000024
S113007015C0000013C0000011C000000FC0000034
S11300800DC000000BC0000009C0000011241FBEF9
S1130090CFEFD0E1DEBFCDBF16D022C0B1CF81E417
S11300A087B987E886B90895F89486B1806486B9DB
S11300B0349BFECF24B185B1837090E0982F8827BC
S11300C0822B78940895EBDF8FEF82B913B8ECDFBD
S11300D08139914010F413B8FACF8FEF83B9F7CF79
S10700E0F894FFCFBE
S9030000FC
